:020000040800F2
:1000000000CF0020C1140008C5120008C712000864
:10001000CB120008CF120008D31200080000000025
:10002000000000000000000000000000D7120008DF
:10003000D912000800000000DB120008DD120008E1
:10004000DB140008DB140008DB140008DB140008D4
:10005000DB140008DB140008C9B90008DB14000831
:10006000F5B9000823BA00084DBA0008DB140008EF
:10007000DB140008DB140008DB140008DB140008A4
:10008000DB140008DB140008DB140008DB14000894
:10009000DB140008DB140008DB14000887BB000831
:1000A000DB140008DB140008DB140008DB14000874
:1000B000E7920008DB140008196F0108DB14000840
:1000C000DB140008DB140008DB140008DB14000854
:1000D000DB140008053F0008DB14000831E50008C8
:1000E000DB140008DB140008DB140008DB14000834
:1000F000DB140008DB140008DB140008DB14000824
:10010000DB14000809B10008A9930008DB140008FB
:10011000DB140008DB14000861950008D79500087F
:10012000DB140008DB140008DB140008DB140008F3
:1001300000F002F800F0B0F80AA090E8000C824449
:100140008344AAF10107DA4501D100F0A5F8AFF226
:10015000090EBAE80F0013F0010F18BFFB1A43F0A5
:1001600001031847041D0200241D02000A444FF039
:10017000000C10F8013B13F0070408BF10F8014B06
:100180001D1108BF10F8015B641E05D010F8016B4B
:10019000641E01F8016BF9D113F0080F1EBF10F8AF
:1001A000014BAD1C0C1B09D16D1E58BF01F801CBD2
:1001B000FAD505E014F8016B01F8016B6D1EF9D555
:1001C0009142D6D37047000000230024002500266A
:1001D000103A28BF78C1FBD8520728BF30C148BFAA
:1001E0000B6070476E291AF0048470291AF05B8145
:1001F00066291CF0F88465291CF0F58467291CF039
:10020000F2846129AFF3008003681B0A28BF41F024
:10021000800169291AF0CC8064291AF0C9807529F7
:100220001AF0C6806F291AF0FD8478291AF0278108
:10023000E9291AF09784E4291AF09484F5291AF030
:100240009184EF291AF0FA84F8291AF026810368BC
:10025000DB0928BF41F0800163291AF00684732965
:100260001AF00B84E3291AF08587F3291AF08A879C
:10027000002070471FB51AF0DFFF040000200021A6
:100280001BF0A4FC401C6060002000211BF088FCD7
:10029000E0601FBD10B510BD1AF0A0FF1146FFF7BA
:1002A000E9FF00F043FA1BF079F803B4FFF7F2FF1F
:1002B00003BC03F0C9FD000008B50121082002F0CD
:1002C00067F94FF48070ADF8000010208DF803003E
:1002D00003208DF802006946FE4801F09DFE4FF4B0
:1002E0008071FC4801F047FF08BD08B50121482096
:1002F00002F04EF92020ADF8000010208DF8030028
:1003000003208DF802006946F24801F085FE2021A5
:10031000F04801F02EFF2020ADF800006946EE48BD
:1003200001F07AFE2021EC4801F023FF08BD2DE901
:10033000F041EA480078002877D0042004F0C7F89C
:10034000E74A5288A2F1F00707EBD772C2F34F01D8
:10035000E34A1288A2F5A07808EBD872C2F34F00E6
:10036000F0234FF4A07204F0FAFBDD48808841F6D8
:100370006311884214D1DA4A5288A2F1F00707EBE0
:10038000D772C2F34F01D64A1288A2F5A07808EBC3
:10039000D872C2F34F004FF4A073F02204F0DFFBD9
:1003A00003F093FE0020CF4908601020C9491431A2
:1003B0000860091F0860091D08600120CA49C1F8CA
:1003C000B8011020C34910310860002420E0002645
:1003D0001AE01020BF4914310860C4488068C5B2D3
:1003E0001020091F08604FF6FF7000EA0525102055
:1003F000091D0860BD488068C0B205431020091F70
:100400000860BB480580761CB6F5A07FE1D3641C6C
:10041000F02CDCD30020B1490870B6480078401CAD
:10042000B4490870002004F052F8BDE8F0812DE9CD
:10043000F041AA48007800287ED0042004F047F854
:10044000A748808841F66311884215D1A44A528892
:10045000A2F5A07606EBD672C2F34F01A04A12882D
:10046000A2F1F00707EBD772C2F34F004FF4A0736D
:10047000F02204F074FB20E09948808845F2105186
:10048000884205D09648808845F21031884214D1C0
:10049000934A5288A2F1F00606EBD672C2F34F01DE
:1004A0008F4A1288A2F5A07707EBD772C2F34F00EC
:1004B000F0234FF4A07204F052FB03F006FE00207C
:1004C000884908601020834914310860091F0860BA
:1004D000091D086001208449C1F8B80110207D4938
:1004E0001031086000241AE010207A4914310860A5
:1004F0007E488068C5B21020091F08604FF6FF7063
:1005000000EA05251020091D086078488068C0B2FF
:1005100005431020091F086075480580641CB4F568
:10052000963FE1D300206D49087072480078401C66
:1005300070490870002000E001E003F0C8FFBDE84A
:10054000F08170B50646002510E02A466AA13046C3
:1005500019F0C8FE012231466C48006810F010FB0B
:100560000446042C00D105E0681C85B24FF6FF70EC
:100570008542EADB00BF70BDF0B591B005460026AC
:10058000294608A810F050FF044640F2FF100790DB
:100590000020079912F0B1FE069004BB0698F0B156
:1005A0001BE0694608A810F08EFF044614B99DF8B8
:1005B000090000B912E00698007808B1069801E039
:1005C0000DF109000746384612F066F9044604F0BA
:1005D000F000502801D1701C86B2E2E700BF30461F
:1005E00011B0F0BD2DE9F04385B006460F46154623
:1005F0009946DDF83080002446E0285DC11700EB05
:100600001171091102AA02F8141002A810F81400BE
:10061000092807DD02A810F81400373002A901F8F4
:10062000140006E002A810F81400303002A901F806
:100630001400285DC11700EB11710911A0EB011125
:10064000012202EB440202AB9954012000EB44006A
:1006500002A9085C09280ADD012000EB4400085CBF
:100660003730012101EB440102AA50540AE0012075
:1006700000EB440002A9085C3030012101EB440189
:1006800002AA5054601CC4B2042CB6DB00208DF8C2
:1006900010004FF478401E4908801EA010210B4620
:1006A0009622CDE900103946304608F0EAF90024D8
:1006B0000EE0102002A900900A5D06F1960100FBF1
:1006C000041188B20223394608F023F9601CC4B231
:1006D000082C27E0000C014000180140AE0000206B
:1006E00056060020B80124420000244200100140B8
:1006F0000008006C94000020303A50484F544F2FAF
:10070000504943253035642E626D7000140100207D
:100710008C000020546865204361726420494420A5
:1007200069733A00C5DB05B0BDE8F08390B04FF0C7
:100730000008C146C24608200F9000244FF0000B6D
:100740000020069000BF00BF202112F0D6FDFD4919
:10075000086003F003FB03F06BFB4FF4E13003F0A0
:1007600082FB04F03CFB03F013FC08F039FBFFF7BD
:10077000A3FDFFF7BAFDF449086880474FF4E13064
:100780000DF005FFF1484168482088470AF088FFCE
:100790000EF031FA002012F0EEFC09F0E4FC12F049
:1007A00035F8EB4901220868EAA110F0BEF9E849E2
:1007B00001224868E8A110F0B8F90BF033FA15F0FF
:1007C000C8FEE6A011F01EF81E21002012F095FDD3
:1007D000059000BF06200AF0B8FE14F091F901213F
:1007E000E1484088CDE90001DF4803880022114636
:1007F000DEA014F04FFA0EF0AFF825E00121DA4840
:100800004088CDE90001D848038800221146D7A0CE
:1008100014F040FA00200C21D9A21823CDE90021C0
:100820000290F0223C21502015F09FFF4FF47A7087
:1008300003F0D1FA4FF6FF7054234FF496723C2127
:100840000090502007F082FE00200AF0DBFE002816
:10085000D4D0D3A019F03AFD4FF6FF7004F08DFA12
:10086000D848006808B9012000E00020D549086098
:100870000122F0214FF4A0700BF0B0FB00200BF030
:100880006FFA00200BF0F5FA00200BF006FB0020B9
:100890000BF034FB00200BF042FB0020CA49C1F8EA
:1008A000BC010EF0B2F83120C849087039204870F8
:1008B000322088702E20C87031200871362048718F
:1008C000382088712E20C871342008722E2048727A
:1008D000322088720020C8721422BDA1BDA017F07A
:1008E00000FDBF48B94ABFA103689648006819F0E7
:1008F000F9FCC822B6A19348006817F0F2FCC822A0
:10090000B3A1BFA017F0EDFCAE48006808B9012004
:1009100000E00020AB490860AC4817F07BFFB0480E
:10092000AA4ABBA103688748006819F0DBFCBDA098
:1009300010210B46C822CDE900100021084608F01E
:10094000A0F80020BC4908800EF0B8F8A6E300200B
:1009500003F038FB0646032E03D0022E01D0012EF1
:1009600012D117F016FD142299A1B4A017F0B9FC0A
:10097000B5A17448006819F0B5FC72480168B5A0CB
:100980000DF065FE4FF06408B8F1000F03D0A8F138
:10099000010000F0FF08B8F1010F08D14FF6FF7019
:1009A0007023EF2264210090542007F0CFFD0698B9
:1009B000401CC0B20690052003F00DFA9E48008846
:1009C00000F4004000286DD09B480088C0F30E0959
:1009D0000020A14901F809009EA019F077FC4A46C1
:1009E0009EA15848006819F07DFC1F20A04908808E
:1009F0004FF6FF70DC232D2282210090002007F0AB
:100A0000A5FD00200C21944ABE23CDE900210290CF
:100A1000B422822115F0A9FE002087490880BAF18E
:100A20002B0F02D0E820069001E0002006908A48B3
:100A30000078312836D100200C218EA2BE23CDE9CA
:100A400000210290B422962115F08FFE472142F238
:100A50000F7018F089FE42F2D141894802F036FF4A
:100A600040F6B83003F0B7F942F2D14409E021462C
:100A7000834802F02BFF322003F0ADF9A4F16400AB
:100A800084B241F646608442F1DC42F2D1417C48B6
:100A900002F01CFF4FF42F7003F09DF900217848FD
:100AA00002F07AFC0698B0F57A7F20D117F0C2FCEC
:100AB0008246BAF12B0F0CD100200C2171A20B46FB
:100AC000CDE900210290C82250213C2015F04DFEB6
:100AD0000BE000200C216EA20B46CDE90021029014
:100AE000C82250213C2015F040FE00200690012035
:100AF00017F0CAFB69480078312822D1684800689D
:100B0000F8B9472142F20F7018F02EFE42F2D1419F
:100B10005B4802F0DBFE40F6B83003F05CF942F2CD
:100B2000D14409E02146564802F0D0FE322003F0BD
:100B300052F9A4F1640084B241F646608442F1DCCB
:100B4000B0E0C1E00C000020B40000209C010020B7
:100B500008010020303A0000313A0000303A2F50AE
:100B6000484F544F0000000056060020303A2F50E6
:100B70004943545552452F312E6A706700000000DA
:100B8000C7EBD3C3CAD6B4A5C5F6D3D2CFC2B0B4CF
:100B9000BCFCA3ACBFAAC6F4CFB5CDB32100000006
:100BA0007468657265206973206120676179206FC0
:100BB00070656E207468652073797374656D21218A
:100BC000000000009401234200002442640500203C
:100BD0004F4B000041542B4349504D55583D300078
:100BE0000000002041542B43495053544152543D7E
:100BF00022544350222C222573222C2573000000FE
:100C000041542B4349504D4F44453D3100000000B5
:100C10004950B5D8D6B73A257320B6CBBFDA3A25B6
:100C200073000000524649445F426567696E6E6911
:100C30006E67212100000000EA00002041542B4390
:100C4000495053454E440000D1EED2E3D4B62CC0F7
:100C5000EED2E5002573000030190020CAD5B5BDDD
:100C60002564D7D6BDDA2CC4DAC8DDC8E7CFC20008
:100C70008C00002077696669BFAAC3C50000000028
:100C800000040040C1ACBDD3B3C9B9A60000000048
:100C9000C1ACBDD3CAA7B0DC000000008E050020A7
:100CA0001400002042F2D141FD4802F00FFE4FF443
:100CB0002F7003F090F80021F94802F06DFBF9481D
:100CC0000068401CF749086041F61F4142F210706D
:100CD00008F054FC0AF072FFFFF729FBF24952209A
:100CE00008F03FF9054675B9F0A010210B46C8225F
:100CF000CDE900100021084607F0C3FE0225F048A8
:100D000008F05AF905460122EEA1F2480FF038FF2B
:100D1000F14B0122F149EF480FF0F2FFED4810F0DE
:100D20001DFAEE480078EE49087000200AF06AFCCF
:100D3000002839D0BBF1000F36D1E9480078E949E5
:100D400088701222E3480FF01BFFE34B0422DC49BA
:100D5000E04810F0B6F8DF4810F000FAE2A01821E1
:100D60000B46E622CDE900104FF4D271002007F0C7
:100D700088FE0120E0490860D9480078401CD84925
:100D800008701222CFA1D3480FF0FAFED24B0122F5
:100D9000D349D04810F095F8CE4810F0DFF9D7A02D
:100DA00019F094FA0BF1010B002D7DD1DDA010217B
:100DB0000B46C822CDE900100021962007F061FE05
:100DC000472142F20F7018F0CFFC42F2D141B448F3
:100DD00002F07CFD40F6B83002F0FDFF42F2D14453
:100DE00009E02146AE4802F071FD322002F0F3FF27
:100DF000A4F1640084B241F646608442F1DC42F220
:100E0000D141A74802F062FD4FF42F7002F0E3FFDA
:100E10000021A34802F0C0FAC2A010210B46C8224C
:100E2000CDE900100021962007F02BFE02250120BD
:100E3000C14908604FF6FF701F23A14A142100909A
:100E40000020FFF7CFFBAFF2347019F03FFA00201B
:100E5000BA49C1F894014FF4967002F0BCFFAFF2AA
:100E60004C7010210B468C22CDE900103821002057
:100E700007F007FE00270CE0102091490090CA5DA2
:100E8000790101F196000323382107F042FD781C17
:100E9000C7B2042FF0DB0020894908710846C078EA
:100EA00000900846837800E0BEE042780178A4A074
:100EB00019F00CFA8249A9A019F008FA1222A9A186
:100EC00084480FF05DFE8348C16810F057F9824BEB
:100ED0000622A8A17F480FF0F4FF7E48C16810F0F9
:100EE0004DF97D4B042276497A480FF0EAFF7948A4
:100EF00010F034F9A1A019F0E9F90598FFF721FBEA
:100F000000214FF4A070CDE90001A6484088A0F56B
:100F1000A070039000EBD070C0F34F02A14800888E
:100F2000F038029000EBD070C0F34F01F023059829
:100F300012F06CFD01207049086017F02AFA1422A3
:100F4000AFF27431AFF20C3017F0CBF95C48C078D7
:100F50005B498978CDE9001059484378027892A11D
:100F60009648006819F0BEF9944800680078362861
:100F70000DD1924800684078302808D131208F493F
:100F80000968087000208D49096848702CE08B487A
:100F90000068007832280DD18848006840783328EE
:100FA00008D1322085490968087000208349096802
:100FB000487019E081480068007861280CD17F48AA
:100FC00000684078332807D17C4909680870002000
:100FD0007A490968487007E0342078490968087040
:100FE000002076490968487074480168AFF29C3067
:100FF0000DF02DFB72A018210B46E622CDE9001062
:101000004FF4E171002007F03CFD07F0F9FE0020ED
:101010000D9912F062F90020059912F05EF9002096
:10102000049912F05AF906E00120434908600020B3
:101030006649C1F8A0018DB965A010210B46C822F0
:10104000CDE900103021002007F01BFD02251C4BCC
:10105000644A0921602008F057F805467DB962A06E
:1010600010210B46C822CDE900104021002007F0D6
:1010700008FD022562490F9808F071F805466DB920
:1010800060A010210B46C822CDE90010502100209D
:1010900007F0F7FC0225642002F09DFE57E40000F3
:1010A0000004004014000020180000205063645227
:1010B0006571756573745F4D495F4F4B00000000AB
:1010C0001A000020303A2F5458542F6E756D2E742C
:1010D0007874000014030020080000203C05002064
:1010E000740500201F00002068617665207361761A
:1010F0006564212121000000A081214274686520DF
:101100006E657720757365722068617665207361FE
:1011100076656420696E2053445F63617264210DBB
:101120000A000000506364416E7469636F6C6C5F09
:101130004D495F4F4B0000009401234200002342C1
:1011400049443A2530327820253032782025303213
:101150007820253032780D0A0000000049443A25F5
:10116000730D0A00303A2F5458542F757365722E40
:101170007478740075736572203A0000796F757227
:10118000206D65737361676520616C726561647958
:1011900020696E2053445F636172642121210D0A2E
:1011A00000000000560600202530327825303278C5
:1011B0002530327825303278000000000C00002005
:1011C00046696E6973682121210000000080214278
:1011D00050636453656C6563745F4D495F4F4B208A
:1011E0002000000040000020506364417574685383
:1011F000746174655F4D495F4F4B20200000000013
:101200007E050020524541445F4D495F4F4B000031
:1012100010B502460120002302E050435C1CE3B2FB
:101220008B42FADB10BD2DE9F04706460F4690468B
:1012300099460225052400BF43463A4631466020C0
:1012400007F062FF0546601EC4B20DB1002CF3DC4E
:101250000225052400BF4946304607F080FF0546B9
:10126000601EC4B20DB1002CF5DC2846BDE8F08745
:101270002DE9F04706460F4690469946022505247B
:1012800000BF43463A463146602007F03DFF054621
:10129000601EC4B20DB1002CF3DC0225052400BF92
:1012A0004946304607F086FF0546601EC4B20DB1C0
:1012B000002CF5DC2846BDE8F08730B5DDE90345B4
:1012C00030BD7047704700BFFEE700BFFEE700BFBC
:1012D000FEE700BFFEE770477047704770470000A9
:1012E0000CB50020019000906C48006840F48030FC
:1012F0006A49086000BF6948006800F40030009047
:101300000198401C0190009818B90198B0F5A06FA1
:10131000F1D16248006800F4003010B10120009063
:1013200001E0002000900098012843D15C4800684B
:1013300040F010005A4908600846006820F0030099
:1013400008600846006840F00200086053484068A2
:10135000524948600846406848600846406840F482
:10136000806048600846406820F47C104860084669
:10137000406840F4E81048600846006840F080701B
:10138000086000BF4548006800F000700028F9D0F0
:101390004248406820F003004049486008464068E1
:1013A00040F00200486000BF3C48406800F00C007C
:1013B0000828F9D10CBD10B5FFF792FF10BD10B58C
:1013C0003648006840F0010034490860084640682B
:1013D00034490840314948600846006832490840AD
:1013E0002E4908600846006820F4802008600846FE
:1013F000406820F4FE0048604FF41F008860FFF74B
:10140000DAFF4FF000602949086010BD10B50021D7
:1014100000200022214B5B6803F00C0121B104295C
:1014200006D0082928D107E0214B224C236027E071
:101430001F4B204C236023E0184B5B6803F47010B3
:10144000164B5B6803F48032022303EB904022B911
:10145000194B4343174C23600DE0104B5B6803F4BA
:10146000003323B1144B4343124C236003E0104B71
:101470004343104C236003E00D4B0E4C236000BF30
:1014800000BF064B5B68C3F303130C4CE15C094BD4
:101490001B68CB40074C236010BD000000100240C9
:1014A000002002400000FFF8FFFFF6FE08ED00E01C
:1014B00000127A005800002000093D005C00002066
:1014C0000948804709480047FEE7FEE7FEE7FEE7D8
:1014D000FEE7FEE7FEE7FEE7FEE7FEE70448054914
:1014E000054A064B70470000BF1300083101000891
:1014F00000C9002000CF002000CB002000CB00203E
:1015000031490143314A1160704770B50021002311
:101510000F22C47804B32D4C246804F4E064C4F5AD
:10152000E064210AC1F10403CA40447804FA03F1DB
:101530008478144021430901254C0678A15504788C
:1015400004F01F050124AC4005786D11AD0005F1D4
:10155000E025C5F8004109E0047804F01F050124E6
:10156000AC401C4D0678761145F8264070BD1A4AED
:101570000A400243154B1B1F1A60704739B1134ACA
:10158000121D12680243114B1B1D1A6006E00F4A20
:10159000121D126882430D4B1B1D1A6070470428F0
:1015A00008D14FF0E021096941F004014FF0E02239
:1015B000116107E04FF0E021096921F004014FF0CB
:1015C000E0221161704700000000FA050CED00E018
:1015D00000E400E080E100E080FFFF1F01684FF6BB
:1015E000FE72114001600021016041608160C160B4
:1015F0008D49884208D18C490839496841F00F016A
:10160000894A083A51608AE087491431884208D1F2
:1016100085490839496841F0F001834A083A516028
:101620007DE081492831884208D17F4908394968DD
:1016300041F470617C4A083A516070E07A493C316B
:10164000884208D178490839496841F47041764A9E
:10165000083A516063E074495031884208D17249B8
:101660000839496841F470216F4A083A516056E0E0
:101670006D496431884208D16B490839496841F4A1
:101680007001694A083A516049E0674978318842F7
:1016900008D165490839496841F07061624A083AE1
:1016A00051603CE06149884206D1011F096841F060
:1016B0000F01021F116032E05C491431884208D1E9
:1016C0005A49091F096841F0F001584A121F116078
:1016D00025E056492831884208D15449091F096834
:1016E00041F47061514A121F116018E04F493C31BA
:1016F000884208D14D49091F096841F470414B4A9D
:10170000121F11600BE049495031884207D1474907
:10171000091F096841F47021444A121F1160704783
:1017200010B50022026847F6F0739A430C6A8B6882
:1017300023430C6923434C6923438C692343CC69BD
:1017400023434C6A23438C6A23431A430260CB68C9
:1017500043600B6883604B68C36010BD002101606B
:1017600041608160C160016141618161C16101626B
:1017700041628162704721B1026842F00102026059
:1017800004E002684FF6FE731A40026070471AB117
:1017900003680B43036002E003688B4303607047F8
:1017A000416070470146486880B27047014600209A
:1017B000002201F080531BB11C4B083B1A6802E069
:1017C000194B083B1A6802EA01030BB1012000E043
:1017D0000020704700F0805119B11449091F0860BA
:1017E00002E0114908394860704701460020002294
:1017F00001F080531BB10D4B083B1A6802E00A4B05
:10180000083B1A6802EA01030BB1012000E0002046
:10181000704700F0805119B10449091F086002E0C7
:101820000149083948607047080002400804024036
:10183000002044490860091D0860091D0860091D51
:10184000086041483F4914310860704700213D4914
:101850008279002A3AD00A46126803689A430B46F6
:101860001A600A1D126803689A430B1D1A600279F8
:1018700011440A6803681A430A60324A083212683F
:1018800003689A432F4B08331A601A1D12680368C5
:101890009A432C4B0C331A604279102A0ED11A1F2E
:1018A000126803681A43274B08331A601A1D12681E
:1018B00003681A43234B0C331A600DE02149427927
:1018C00011440A6803681A430A6005E0027911446A
:1018D0000A6803689A430A60704700210160017139
:1018E0000C2141710021817170471649103109683E
:1018F0000143144A10321160704701460020114A1A
:10190000143212680A400AB1012000E0002070473A
:101910000C49143108607047014600200022094B31
:101920001B6803EA0102074B14331B680B4013B119
:101930000AB1012000E0002070470249143108601C
:101940007047000000040140FFFF0F0030B943F270
:10195000DB028100A1F1C0410A6005E043F2D2023E
:101960008100A1F1C0410A606FF07042411C890002
:10197000A1F1C0410A608100A1F1C041C1F8042178
:10198000704710280AD118214FF0204211664021DB
:1019900051664FF0FC319166D16610E01821F74A8C
:1019A000116040214FF02042C2F884104FF0FC310A
:1019B000F24A083211604FF02042C2F88C10704792
:1019C0001820EE492031086000200906C1F8A40063
:1019D0004FF0FC30E94928310860091D0860091DF5
:1019E00008607047D0E901121143C26811430269CF
:1019F00011434269114382691143C2691143026A6A
:101A00001143426A1143826A1143C26A1143026B55
:101A1000114302689200A2F1C04211608168082956
:101A20000BD101688900A1F1C041096841F0400271
:101A300001688900A1F1C0410A60416B0968426BED
:101A4000526841EA0211426B926841EA0221426BFC
:101A5000928941EA0241426B128A41EA0251426B89
:101A6000127D41EA0261426B926911430268521C85
:101A70009200A2F1C0421160C16AB1F5804F1BD142
:101A8000816B0968826B526841EA0211826B92682D
:101A900041EA0221826B128A41EA0251826B127D75
:101AA00041EA0261826B9269114302689200A2F1DD
:101AB000C042C2F8041107E06FF07042016889006B
:101AC000A1F1C041C1F80421704730B500210022C6
:101AD0000023446844F0080485682C43C5682C43FF
:101AE00005692C43456944EA4524856944EA453142
:101AF000C4692468C5696D6844EA0524C5692D89EF
:101B000044EA0544C5692D7B44EA0562046A2468F9
:101B1000056A6D6844EA0524056A2D8944EA05448E
:101B2000056A2D7B44EA05630468102C05D14FF04B
:101B300020442166A266E36608E0904C21604FF0E5
:101B40002044C4F888208D4C0C34236030BD0168DB
:101B500041F01001426841EA4221826841EA423183
:101B6000864A20321160C1680968C268526841EA39
:101B70000221C268128941EA0241C268127B41EA2D
:101B800002617E4A2832116001690968026952685F
:101B900041EA02210269128941EA02410269127B8B
:101BA00041EA0261754A2C32116041690968426953
:101BB000526841EA02214269128941EA02414269BE
:101BC000127B41EA02614FF02042C2F8B010704728
:101BD000002101600221416000218160C16001613A
:101BE00041618161C16101624FF4805141624900EC
:101BF00081620021C16201630F21426B1160426B5F
:101C00005160FF21426B91600F21426BD160426BAA
:101C10001161426B51610021426B91610F21826B16
:101C20001160826B5160FF21826B91600F21826B8A
:101C3000D160826B1161826B51610021826B916175
:101C4000704710210160002141608160C160016125
:101C500041618161FC21C2691160C2695160C26940
:101C60009160C269D160026A1160026A5160026AC1
:101C70009160026AD160704700210160416081601B
:101C8000FC21C2681160C2685160C2689160C2687C
:101C9000D160026911600269516002699160026954
:101CA000D160426911604269516042699160426944
:101CB000D160704751B18200A2F1C042126842F077
:101CC00001038200A2F1C042136009E08200A2F188
:101CD000C04212682A4B1A408300A3F1C0431A6025
:101CE000704799B1102808D14FF02042126E42F08F
:101CF00004024FF020431A661DE0204A126842F0A9
:101D000004024FF02043C3F8802014E0102809D1CA
:101D10004FF02042126E1A4BDB1E1A404FF0204348
:101D20001A6608E0154A1268154BDB1E1A404FF080
:101D30002043C3F88020704748B11049203109681A
:101D400041F004014FF02042C2F8A01009E00B4915
:101D5000203109680A4AD21E11404FF02042C2F8D1
:101D6000A0107047B9B110280CD14FF02042126E6C
:101D700042F040024FF020431A661FE0800000A0AE
:101D8000FEFF0F00724A126842F040024FF02043FB
:101D9000C3F8802012E0102808D14FF02042126EC4
:101DA0006C4B1A404FF020431A6607E0684A1268ED
:101DB000684B1A404FF02043C3F88020704701461B
:101DC0000020102903D14FF02042506F02E0604AFA
:101DD00014321068704710B5F2B1102807D14FF0D7
:101DE00020435B6E0B434FF02044636632E0B0F556
:101DF000807F08D1564B1B1D1B680B434FF02044BE
:101E0000C4F8843026E0524B24331B680B434FF058
:101E10002044C4F8A4301DE0102807D14FF020431F
:101E20005B6E8B434FF02044636613E0B0F5807F18
:101E300008D1474B1B1D1B688B434FF02044C4F84F
:101E4000843007E0424B24331B688B434FF020441F
:101E5000C4F8A43010BD10B5024600200023102A9B
:101E600003D14FF02044636E09E0B2F5807F03D1C7
:101E7000374C241D236802E0354C2434236803EAE0
:101E800001040CB1012000E0002010BD102807D192
:101E90004FF02042526E8A434FF020435A6613E0BF
:101EA000B0F5807F08D12A4A121D12688A434FF08C
:101EB0002043C3F8842007E0254A243212688A436D
:101EC0004FF02043C3F8A420704770B502460020AD
:101ED000002300240025102A03D14FF02046736E02
:101EE00009E0B2F5807F03D1194E361D336802E058
:101EF000174E2436336803EA010403EAD10514B10E
:101F00000DB1012000E0002070BD102808D14FF075
:101F10002042526E22EAD1024FF020435A6615E069
:101F2000B0F5807F09D10A4A121D126822EAD10257
:101F30004FF02043C3F8842008E0054A2432126899
:101F400022EAD1024FF02043C3F8A42070470000DA
:101F5000800000A0BFFF0F0010B50446CC488442AB
:101F600008D10121042000F02DFB0021042000F005
:101F700029FB46E0C748844208D10121082000F02F
:101F800021FB0021082000F01DFB3AE0C2488442FA
:101F900008D10121102000F015FB0021102000F0D5
:101FA00011FB2EE0BD48844208D10121202000F021
:101FB00009FB0021202000F005FB22E0B848844204
:101FC00008D10121402000F0FDFA0021402000F05E
:101FD000F9FA16E0B348844208D10121802000F0CC
:101FE000F1FA0021802000F0EDFA0AE0AE488442C8
:101FF00007D10121801500F0E5FA0021A01500F0BD
:10200000E1FA10BD10B50121084600F0DBFA00210D
:10201000012000F0D7FA10BD2DE9F041024600255D
:102020000026002000230024002791F803C00CF0B4
:102030000F0591F803C00CF0100CBCF1000F03D099
:1020400091F802C04CEA050591F800C0BCF1000F00
:1020500031D0146800202BE04FF0010C0CFA00F393
:10206000B1F800C00CEA03069E4220D183004FF075
:102070000F0C0CFA03F7BC4305FA03FC4CEA04040A
:1020800091F803C0BCF1280F06D14FF0010C0CFAF7
:1020900000FCC2F814C00AE091F803C0BCF1480F7C
:1020A00005D14FF0010C0CFA00FCC2F810C0401C26
:1020B0000828D1D31460B1F800C0BCF1FF0F34DDA3
:1020C000546800202EE000F1080C4FF0010808FAD7
:1020D0000CF3B1F800C00CEA03069E4221D1830044
:1020E0004FF00F0C0CFA03F7BC4305FA03FC4CEA63
:1020F000040491F803C0BCF1280F05D100F1080CCD
:1021000008FA0CF8C2F8148091F803C0BCF1480F2B
:1021100007D100F1080C4FF0010808FA0CF8C2F8DA
:102120001080401C0828CED35460BDE8F0814FF6E3
:10213000FF710180022181700421C1707047024645
:10214000002093680B400BB1012000E00020704795
:102150000146886880B2704702460020D3680B4071
:102160000BB1012000E0002070470146C86880B232
:10217000704701617047416170470AB1016100E039
:1021800041617047C16070474FF480320A438261F9
:102190008161826182698269704702460020434BF7
:1021A00018684FF68073184040EA021008433F4B0E
:1021B000186070473E49C8617047F0B50A46002371
:1021C00000240021002500F00046B6F1004F02D1A6
:1021D000364EF16901E0354E7168C0F3034583B2B4
:1021E00000F44016B6F5401F08D121F070612F4E63
:1021F000766826F070662D4F7E6012E000F480163F
:10220000B6F5801F06D1032606FA05F4A14341F076
:10221000706106E0460D360103FA06F6B14341F05F
:10222000706122B1460D360103FA06F6314300F023
:102230000046B6F1004F02D11C4EF16101E01B4E89
:102240007160F0BD30B500228B071C0F0F2303FA1D
:1022500004F2164B08338C1053F824309343134C7C
:1022600008348D1044F8253023468C1053F8243060
:102270008C07240F00FA04F423430C4C08348D100F
:1022800044F8253030BD0A49DC3108607047000051
:1022900000080140000C0140001001400014014002
:1022A00000180140001C01400020014000000140D6
:1022B00000002042DF48006840F00100DD4908606E
:1022C00008464068DC490840DA494860084600682A
:1022D000DA490840D74908600846006820F48020A1
:1022E00008600846406820F4FE0048604FF41F0074
:1022F00088607047CF49096821F48031CD4A116068
:102300001146096821F480211160B0F5803F03D0A7
:10231000B0F5802F0ED106E0C649096841F480313E
:10232000C44A116007E0C349096841F4A021C14AC9
:10233000116000E000BF00BF704710B501460022E9
:10234000002300204A11012A02D1BA4C236806E07A
:10235000022A02D1B74C236A01E0B64C636A01F04D
:102360001F02012494401C400CB1012000E0002019
:1023700010BD38B5002000900024002500BF31209A
:10238000FFF7DBFF05460098401C00900098B0F571
:10239000A06F01D0002DF2D03120FFF7CEFF08B1A1
:1023A000012400E00024204638BD01460020A14A57
:1023B000106820F0F80040EAC10010607047A049A2
:1023C00008607047024600209A4B586820F47C1041
:1023D00042EA01031843974B5860704798490866D2
:1023E000704701460020934A506820F003000843DC
:1023F000506070478F48406800F00C0070470146FD
:1024000000208C4A506820F0F0000843506070476C
:1024100001460020874A506820F4E060084350607D
:10242000704701460020834A506820F4605040EA1B
:10243000C1005060704729B17E4A527A02437D4BF9
:102440005A7204E07B4A527A82437A4B5A7270473E
:102450007B49D8310860704701460020754A5068B2
:1024600020F440400843506070470021714A2032F8
:102470001170704A82F82010012802D004280AD175
:1024800004E001216B4A2032117005E00521694A00
:102490002032117000E000BF00BF7047694908603A
:1024A00070476449096A0143624A1162704765498D
:1024B00044390860704730B5002100220024002311
:1024C0005C4D6D6805F00C0121B1042905D0082987
:1024D00023D105E05C4D056022E05B4D05601FE007
:1024E000544D6D6805F47012524D6D6805F48034DA
:1024F000022505EB92421CB9544D554305600BE093
:102500004C4D6D6805F400351DB1504D55430560C7
:1025100002E04D4D5543056002E04B4D056000BFA4
:1025200000BF444D6D6805F0F0010909484D6B5C32
:102530000568DD4045603F4D6D6805F4E061090ABE
:10254000434D6B5C4568DD4085603A4D6D6805F430
:102550006051C90A3E4D6B5C4568DD40C560354D34
:102560006D6805F44041890B3A4D6B5CC568B5FB5D
:10257000F3F5056130BD29B12E4A526902432D4B56
:102580005A6104E02B4A526982432A4B5A617047D0
:1025900029B1284A92690243264B9A6104E0254AF0
:1025A00092698243234B9A61704729B1214AD269CB
:1025B0000243204BDA6104E01E4AD26982431D4B7C
:1025C000DA61704729B11B4AD2680243194BDA60BD
:1025D00004E0184AD2688243164BDA60704729B18A
:1025E000144A12690243134B1A6104E0114A12693A
:1025F0008243104B1A617047124940390860704796
:102600000F49C86470470B49C87170470948406A50
:1026100040F0807007494862704701460020054A33
:1026200092680A400AB1012000E000207047014989
:1026300088727047001002400000FFF8FFFFF6FEAE
:10264000000042428004424200127A0000093D002C
:102650006C0000207C00002000206F49086048606A
:102660008860C86048628862C8626C4888630020DD
:10267000C86370470021684A516847F6FF6291437A
:10268000027D83681A4343681A43C3681A43036888
:102690001A4303691A4311435F4A5160704700218E
:1026A0000175016041608160C160016170475C49F2
:1026B000086070475849096821F00301564A1160C3
:1026C000114609680143116070475348006800F0E3
:1026D0000300704729B1504AD26B02434E4BDA6374
:1026E00004E04D4AD26B82434B4BDA6370474D494D
:1026F000086070470021484B02689A601A46D1680A
:102700006FF30A01D0E901231A43C3681A4303692E
:102710001A431143404AD160704700210160416073
:102720008160C160016170473B480069C0B2704779
:1027300008B5014600200090374814300844009046
:102740000098006808BD0021334B02685A62426855
:102750009A621A46D16A21F0F701D0E902231A439E
:1027600003691A4343691A4311432B4AD1627047E4
:102770004FF0FF310160002141608160C160016163
:10278000416170472448006B7047234880300068DF
:10279000704721498031086070471F48806C70473E
:1027A00020491431086070471E491831086070478D
:1027B0001C491C31086070471A4920310860704775
:1027C0001949086070471849091D086070470121C0
:1027D0008143154A08321160704713490C31086073
:1027E0007047014600200C4A526B0A400AB1012092
:1027F00000E00020704708498863704701460020C8
:10280000054A526B0A400AB1012000E000207047DF
:10281000014988637047000000800140FF07C00045
:10282000A00030428C053042AC01304210B5044665
:10283000BE48844208D101218014FFF7C3FE002165
:10284000A014FFF7BFFE16E0B948844208D1012169
:102850000014FFF7C4FE00212014FFF7C0FE0AE0B9
:10286000B448844207D10121C013FFF7B8FE00210C
:10287000E013FFF7B4FE10BD10B50022028802F489
:1028800041520B884C8823438C882343CC882343B4
:102890000C8923434C8923438C892343CC892343CC
:1028A0001A430280838B4FF2FF74234083830B8A89
:1028B000038210BD2DE9F04F85B005460C464FF060
:1028C000000902274FF000084FF0010B0026B24626
:1028D000A88B4FF240010840A88302202884B5F855
:1028E0001C90A068022801D100BF38E0A08810B970
:1028F0004FF0010B01E04FF0020B8D48854200D1F3
:1029000000E000BF6846FFF7D6FDDDF800A0E088D4
:10291000B0F5007F0AD14FEA1A2000EB800040009A
:10292000A168B0FBF1F0401D86B20BE04FEA4B10FE
:10293000BAFBF0F000EB80004000A168B0FBF1F0C2
:10294000401D86B20A20B6FBF0F606F00108A6EBA1
:102950000800C0F34F074FF6FF7000EA0828022F67
:1029600001DBFF2F02DD02274FF00008E08840EA7C
:10297000080038432884A088A18908436188084357
:102980002188084340F4006040EA0909A5F81C903A
:1029900005B0BDE8F08F0021018041808180C180B9
:1029A000018141818181C18107210182704700211C
:1029B000018041808180C18002218160002181816C
:1029C000704721B1028842F04002028004E0028890
:1029D0004FF6BF731A400280704721B1828B42F4D8
:1029E0008062828304E0828B4FF6FF331A40828339
:1029F000704730B5002400230C110125A540ABB26F
:102A00001AB185881D43858002E085889D438580B5
:102A100030BD1AB183880B43838002E083888B43E7
:102A200083807047818170470146888970474FF6DF
:102A3000FF62914204D0028842F48072028004E076
:102A400002884FF6FF631A400280704721B18288E6
:102A500042F00402828004E082884FF6FB731A4041
:102A60008280704702884FF2FF731A40028002880A
:102A70000A4302807047018841F480510180704709
:102A800021B1028842F40052028004E002884DF62F
:102A9000FF731A400280704702460020012901D0CE
:102AA000108B00E0908A70470146088A7047B1F5A4
:102AB000804F04D1028842F48042028004E0028800
:102AC0004BF6FF731A4002807047024600201389BC
:102AD0000B400BB1012000E000207047CA43028187
:102AE0007047F0B50246002000240023002501F0C5
:102AF0000F070126BE40B4B20B1101269E40B3B2AF
:102B0000968806EA03051689264016B10DB1012004
:102B100000E00020F0BD10B5002201F00F040123F9
:102B2000A3409AB2D343038110BD0000003001409E
:102B300000380040003C004010B50446FE48844286
:102B400008D10121C014FFF73DFD0021E014FFF77B
:102B500039FDC4E0B4F1804F08D101210846FFF7E8
:102B60003EFD00210120FFF73AFDB8E0F348844222
:102B700008D101210220FFF732FD00210220FFF7DA
:102B80002EFDACE0EE48844208D101210420FFF77D
:102B900026FD00210420FFF722FDA0E0E948844241
:102BA00008D101210820FFF71AFD00210820FFF7B6
:102BB00016FD94E0E448844208D101211020FFF77B
:102BC0000EFD00211020FFF70AFD88E0DF48844257
:102BD00008D101212020FFF702FD00212020FFF76E
:102BE000FEFC7CE0DA48844208D101214014FFF762
:102BF000E9FC00216014FFF7E5FC70E0D548844251
:102C000009D10121C804FFF7DDFC00214FF40020A9
:102C1000FFF7D8FC63E0D048844209D101210805C0
:102C2000FFF7D0FC00214FF48010FFF7CBFC56E0FB
:102C3000CA48844209D101214805FFF7C3FC00219D
:102C40004FF40010FFF7BEFC49E0C548844208D1AC
:102C500001214020FFF7C3FC00214020FFF7BFFC0B
:102C60003DE0C048844208D101218020FFF7B7FC35
:102C700000218020FFF7B3FC31E0BB48844208D13B
:102C800001218015FFF7ABFC0021A015FFF7A7FC81
:102C900025E0B648844209D101210804FFF792FCDF
:102CA00000214FF48030FFF78DFC18E0B0488442DB
:102CB00009D101214804FFF785FC00214FF40030C1
:102CC000FFF780FC0BE0AB48844208D10121880467
:102CD000FFF778FC00214FF48020FFF773FC10BD54
:102CE00000220288944B98420ED0994B98420BD008
:102CF000B0F1804F08D0914B984205D0904B98424C
:102D000002D0904B984204D14FF68F731A404B88F3
:102D10001A438D4B984207D08C4B984204D04FF603
:102D2000FF431A40CB881A4302808B8883850B8827
:102D30000385814B98420BD0854B984208D08B4B32
:102D4000984205D08A4B984202D08A4B984201D1D2
:102D50000B7A038601238382704770B5002400221A
:102D60000023058C4FF6FE7635400584028C83885F
:102D7000048B4FF68F752C40B51E2C400D882C43CC
:102D8000751E2A400D892A434D882A436A4DA84260
:102D90000BD06F4DA84208D0744DA84205D0744D99
:102DA000A84202D0734DA84213D14FF6F7752A40BE
:102DB0004D892A434FF6FB752A408D882A434FF6EA
:102DC000FF652B404FF6FF552B408D892B43CD8956
:102DD0002B4383800483CD888586028470BD70B5C3
:102DE000002400220023058C4FF6EF763540058441
:102DF000028C8388048B48F6FF752C404FF6FF4504
:102E00002C400D884FF6FF7606EA05252C434FF639
:102E1000DF752A400D8906EA05152A434D8806EA22
:102E200005152A43444DA84202D0494DA8421DD160
:102E30004FF67F752A404D894FF6FF7606EA051555
:102E40002A434FF6BF752A408D8806EA05152A43A6
:102E50004FF6FF352B404FF2FF752B408D8906EA68
:102E600085052B43CD8906EA85052B4383800483A2
:102E7000CD880587028470BD70B500240022002330
:102E8000058C4FF6FF6635400584028C8388848B61
:102E90004FF68F752C404FF6FC752C400D882C4357
:102EA0004FF6FF552A400D894FF6FF7606EA0525B5
:102EB0002A434D8806EA05252A431F4DA84202D021
:102EC000234DA8421DD14FF2FF752A404D894FF680
:102ED000FF7606EA05252A434FF6FF352A408D88FE
:102EE00006EA05252A434EF6FF752B404DF6FF7581
:102EF0002B408D8906EA05152B43CD8906EA051579
:102F00002B4383808483CD888587028470BD70B510
:102F1000002200230024058C4EF6FF763540058400
:102F2000038C8488828B48F6FF752A404FF6FF4554
:102F30002A400D8820E00000002C014000040040E1
:102F400000080040000C0040001000400014004049
:102F500000340140004C0140005001400054014049
:102F600000180040001C00400020004000400140CC
:102F700000440140004801404FF6FF7606EA05256F
:102F80002A434DF6FF752B400D8906EA05352B4384
:102F90004D8806EA05352B43FA4DA84202D0FA4D7A
:102FA000A84208D14BF6FF752C408D894FF6FF766D
:102FB00006EA85152C4384808283CD88A0F8405092
:102FC000038470BD828B4FF2FF331A408283828B61
:102FD0004FF6FF7303EA01231A4382837047F0B56B
:102FE0000C461546002200210026078C4EF6FF7C79
:102FF00007EA0C070784828B018C4FF6FF7707EAFC
:10300000043640F6FF473A404FF6FF7707EA0527B8
:103010003A434FF6FF7707EA03373A43D94FB842AE
:103020000ED0D94FB8420BD0B0F1804F08D0D74F57
:10303000B84205D0D64FB84202D0D64FB84206D1DA
:103040004DF6FF77394046F48057394305E047F69F
:10305000FF57394044F48057394382830184F0BDDF
:10306000828B4FF6F3731A408283828B0A438283EA
:103070007047F0B50C461546002200210026078C4B
:103080004FF6FF6C07EA0C070784828B018C4FF622
:10309000FF7707EA04264FF60C773A404FF6FF77A2
:1030A00007EA03172F433A43B64FB8420ED0B64F44
:1030B000B8420BD0B0F1804F08D0B44FB84205D021
:1030C000B34FB84202D0B34FB84206D14FF6FF57C4
:1030D000394046F48077394305E04FF2FF573940D5
:1030E00044F48077394382830184F0BD028B4FF230
:1030F000FF331A400283028B4FF6FF7303EA01236A
:103100001A4302837047F0B50C4615460022002191
:103110000026078C4FF6EF7C07EA0C070784028B2A
:10312000018C4FF6FF7707EA041640F6FF473A4056
:103130004FF6FF7707EA03373A434FF6FF7707EA80
:1031400005273A438F4FB8420ED08F4FB8420BD06D
:10315000B0F1804F08D08D4FB84205D08C4FB842A7
:1031600002D08C4FB84206D14FF6DF77394046F097
:103170001007394305E04FF65F77394044F01007F8
:10318000394302830184F0BD028B4FF6F3731A407A
:103190000283028B0A4302837047F0B50C46154642
:1031A00000220021068C4FF6FE773E400684028BFB
:1031B000018C4FF60C7632407E1C06EA03162E4335
:1031C0003243704EB0420ED06F4EB0420BD0B0F1D1
:1031D000804F08D06D4EB04205D06D4EB04202D047
:1031E0006C4EB04206D14FF6FD76314044F00106F8
:1031F000314305E04FF6F576314044F001063143A6
:1032000002830184F0BD70B505460C465D488542D9
:103210000ED05D4885420BD0B5F1804F08D05B4899
:10322000854205D05A48854202D05A48854200D18D
:1032300000E000BF208850B92389A2886188284611
:10324000FFF7ABFFE1882846FFF79EFF25E02088C7
:1032500004280AD12389A28861882846FFF753FFF2
:10326000E1882846FFF742FF17E0208808280AD1A6
:103270002389A28861882846FFF7FBFEE18828465B
:10328000FFF7EEFE09E02389A28861882846FFF750
:10329000A6FEE1882846FFF795FE70BD2DE9F041B6
:1032A00005460C4600260127608808B9022600E082
:1032B0000026A088012801D1022700E001272088EC
:1032C000A0B92389A28861882846FFF766FFE188B4
:1032D0002846FFF759FF23893A4631462846FFF72B
:1032E00012FFE1882846FFF701FF13E02389A28837
:1032F00061882846FFF707FFE1882846FFF7F6FEBA
:1033000023893A4631462846FFF747FFE188284699
:10331000FFF73AFFBDE8F0810A884B881A438B8893
:103320001A43CB881A430B891A434B891A438B895A
:103330001A43A0F8442070474FF6FF7181800021A6
:103340000180C1804180017270470021018041806D
:103350008180C180018141818181C18170470021CB
:1033600001804180012181800021C180018170475D
:103370000021018041808180C18001814181818162
:1033800070470000002C0140003401400004004060
:1033900000080040000C004021B1028842F0010208
:1033A000028004E002884FF6FE731A4002807047E4
:1033B00031B1B0F8442042F40042A0F8442005E0C6
:1033C000B0F84420C2F30E02A0F8442070471AB1AE
:1033D00083890B43838102E083898B438381704718
:1033E0008182704741EA0203A0F8483070471AB161
:1033F00083890B43838102E083898B4383817047F8
:1034000001894FF6F8721140018170470A46002188
:1034100001894FF68F73194011430181704730B510
:1034200004460D4629462046FFF7F0FF208940F06C
:103430000700208130BD2DE9F04104460D461646B7
:103440001F46602D06D13B46012231462046FFF73C
:103450005AFE05E03B46012231462046FFF79DFE1D
:1034600029462046FFF7D2FF208940F0070020813F
:10347000BDE8F08130B50C4600210189C9B24FF694
:10348000FF7505EA0325154325432943018130BD16
:103490002DE9F04105460E4617469846002443465E
:1034A0003A4631462846FFF7E5FF2C894FF6F8707B
:1034B000044044F007044FF68F70044044F0700459
:1034C0002C81BDE8F081F0B504460D4616461F4636
:1034D0003B46324629462046FFF7CCFF208940F480
:1034E00080402081F0BD0185828270470A4600211C
:1034F00001884FF68F731940114301807047F0B572
:103500000C4615461E460021002200230189028B2D
:10351000038C4FF6F877394021434FF6FC473A4089
:1035200040F201173A434FF6DD773B404FF6FF7705
:1035300007EA06172F433B43018102830384F0BD52
:103540000A460021018B4FF68F7319401143018306
:1035500070470A460021018B48F6FF7319404FF669
:10356000FF7303EA02231943018370470A460021CF
:10357000818B4FF68F7319401143818370470A4640
:103580000021818B48F6FF7319404FF6FF7303EA61
:10359000022319438183704721B1028842F08002DF
:1035A000028004E002884FF67F731A400280704761
:1035B00021B1828842F00402828004E082884FF6C2
:1035C000FB731A408280704721B1828842F0080262
:1035D000828004E082884FF6F7731A408280704739
:1035E00021B1828842F00102828004E082884FF695
:1035F000FE731A40828070470A460021018B4FF605
:10360000F77319401143018370470A460021018B6B
:103610004FF2FF7319404FF6FF7303EA0223194379
:10362000018370470A460021818B4FF6F7731940DA
:103630001143818370470A460021818B4FF2FF734B
:1036400019404FF6FF7303EA022319438183704741
:103650000A460021018B4FF6FB7319401143018389
:1036600070470A460021018B4FF6FF3319404FF691
:10367000FF7303EA02231943018370470A460021BE
:10368000818B4FF6FB7319401143818370470A46C3
:103690000021818B4FF6FF3319404FF6FF7303EA89
:1036A00002231943818370470A460021018B4FF69C
:1036B0007F7319401143018370470A460021018B33
:1036C000C1F30E014FF6FF7303EA0223194301838E
:1036D00070470A460021818B4FF67F7319401143D2
:1036E000818370470A460021818BC1F30E014FF69A
:1036F000FF7303EA02231943818370470A460021BE
:10370000018C4FF6FD7319401143018470470A463E
:103710000021018C4FF6F773194011430184704763
:103720000A460021018C4FF6DF7319404FF6FF73F4
:1037300003EA02131943018470470A460021018CF1
:103740004FF67F7319404FF6FF7303EA02131943D4
:10375000018470470A460021018C4FF6FF5319403F
:103760004FF6FF7303EA02231943018470470A46A8
:103770000021018C4FF2FF7319404FF6FF7303EAEB
:1037800002231943018470470A460021018C4DF63B
:10379000FF7319404FF6FF7303EA023319430184A4
:1037A000704730B5002301248C40A3B2048C9C43A5
:1037B0000484048C02FA01F5ADB22C43048430BDBC
:1037C00030B5002304248C40A3B2048C9C430484B1
:1037D000048C02FA01F5ADB22C43048430BD70B5FF
:1037E0000346002000241846183001258D40ACB255
:1037F0001D8CA5431D8409B1082909D100EB610086
:10380000056825F0700505600568154305600EE044
:103810000D1FC5F34E052844056825F4E0450560F5
:1038200005684FF6FF7606EA02263543056070BD4F
:1038300021B1028842F00202028004E002884FF6C1
:10384000FD731A400280704721B1028842F00402E1
:10385000028004E002884FF6FB731A400280704732
:1038600021B1828842F08002828004E082884FF693
:103870007F731A408280704702884FF6F7731A40B0
:10388000028002880A430280704782884FF68F7355
:103890001A40828082880A438280704702894FF6EC
:1038A000F8731A40028102890A4302817047028933
:1038B0004FF67F731A40028102890A4302817047E2
:1038C0008184704781857047818670470187704782
:1038D00081877047A0F84010704702884FF6FF4379
:1038E0001A40028002880A43028070470146888E8F
:1038F00070470146088F70470146888F7047014620
:10390000B1F8400070470146888C70470146088D29
:10391000704702460020138A0B400BB1012000E0E3
:1039200000207047CA430282704730B5024600202B
:1039300000230024158A05EA0103958905EA01049C
:1039400013B10CB1012000E0002030BDCA43028257
:103950007047000010B50446FB48844209D101219C
:103960008803FEF72FFE00214FF48040FEF72AFE69
:1039700032E0F648844209D101214804FEF72FFEC7
:1039800000214FF40030FEF72AFE25E0F048844283
:1039900009D101218804FEF722FE00214FF4802086
:1039A000FEF71DFE18E0EB48844209D10121C8044E
:1039B000FEF715FE00214FF40020FEF710FE0BE08D
:1039C000E548844208D101210805FEF708FE0021E0
:1039D0004FF48010FEF703FE10BD2DE9F04786B0CE
:1039E00005460E460024A24600BFA1460027B08926
:1039F00000B100BF2F462C8A4CF6FF700440F088BF
:103A000004432C82AC894EF6F3100440B08831890F
:103A10000843718908430443AC81AC8A4FF6FF40E8
:103A20000440B0890443AC8201A8FEF744FDC648B7
:103A3000874202D1DDF810A001E0DDF80CA0A889D2
:103A400000F4004040B10AEBCA0000EB0A103168F4
:103A50004900B0FBF1F807E00AEBCA0000EB0A10DE
:103A600031688900B0FBF1F86420B8FBF0F0040184
:103A70002009642101FB1089A88900F4004040B1AD
:103A8000322000EBC900B0FBF1F000F00700044366
:103A900008E0322000EB09106421B0FBF1F000F0E7
:103AA0000F0004432C8106B0BDE8F0874FF4165197
:103AB000016000218180C18001810C2141810021B0
:103AC0008181704710B502460020108A4FF2FF0333
:103AD00018400B884C8823438C882343CC8823438D
:103AE0001843108210BD0021018041808180C18077
:103AF000704721B1828942F40052828104E08289B8
:103B00004DF6FF731A4082817047F0B503460024DA
:103B100000260025002040F66A17B94200D100BFF8
:103B20001846C1F3421401F01F06012707FA06F5F3
:103B3000012C01D10C3004E0022C01D1103000E046
:103B400014301AB107682F43076002E00768AF43DB
:103B50000760F0BD1AB1838A0B43838202E0838A37
:103B60008B4383827047028A4FF6F0731A400282B9
:103B7000028A0A430282704782894FF2FF731A4019
:103B8000828182890A438281704721B1828942F011
:103B90000202828104E082894FF6FD731A4082811D
:103BA0007047028A4FF6DF731A400282028A0A4384
:103BB0000282704721B1028A42F48042028204E00C
:103BC000028A4BF6FF731A4002827047C1F3080263
:103BD0008280704701468888C0F308007047818959
:103BE00041F0010181817047028BD2B20283028BC6
:103BF00042EA012202837047028B02F47F42028371
:103C0000028B0A430283704721B1828A42F020026C
:103C1000828204E0828A4FF6DF731A408282704704
:103C200021B1828A42F01002828204E0828A4FF639
:103C3000EF731A408282704721B1828A42F00802F3
:103C4000828204E0828A4FF6F7731A4082827047BC
:103C500021B1828942F40042828103E08289C2F369
:103C60000E028281704721B1828A42F40062828210
:103C700004E0828A4FF2FF731A4082827047828A80
:103C80004FF6FB731A408282828A0A43828270470F
:103C900021B1828A42F00202828204E0828A4FF6D7
:103CA000FD731A408282704702460020B1F5007F02
:103CB00000D100BF13880B400BB1012000E00020B1
:103CC000704701F40072B2F5007F00D100BFCA4313
:103CD0000280704770B502460024002300250020B2
:103CE00040F66A16B14200D100BFC1F3421501F09F
:103CF0001F03012606FA03F3012D02D196893340F2
:103D000006E0022D02D1168A334001E0968A334044
:103D10000C12012606FA04F41688344013B10CB1D3
:103D2000012000E0002070BD10B50022002340F605
:103D30006A14A14200D100BF0A1201249440A3B228
:103D4000DC43048010BD0000003801400044004006
:103D500000480040004C00400050004010B56FF09B
:103D60000400FDF71CFC2E4800682E49B0FBF1F062
:103D70002D4908700846007800EB4001C1EBC010E7
:103D80004FF6FF7101EAC0002849088010BD0146C6
:103D9000254A12784A434FF0E0235A6100229A6183
:103DA0001A46126942F001021A6100BF4FF0E02288
:103DB000106900F001021AB100F48032002AF5D037
:103DC0004FF0E022126922F001024FF0E0231A6165
:103DD00000229A6170470146144A12884A434FF004
:103DE000E0235A6100229A611A46126942F00102E8
:103DF0001A6100BF4FF0E022106900F001021AB111
:103E000000F48032002AF5D04FF0E022126922F04F
:103E100001024FF0E0231A6100229A61704700000E
:103E20005800002000127A0080000020820000204C
:103E300010B54FF4A060FDF763FB10BD30BF7047B5
:103E400072B6704762B67047014600BF704700BF48
:103E50004B4A128802F04002002AF9D0C2B2484B05
:103E60001B1D1A80704710B586B00446012144F22C
:103E70000400FEF78DFB4248FFF76CFD4FF4007025
:103E8000ADF8140003208DF8160018208DF81700E7
:103E900005A93C48FEF7C0F84FF48060ADF8140067
:103EA00004208DF8170005A93648FEF7B5F825203F
:103EB0008DF8000003208DF801008DF8020001202C
:103EC0008DF803006846FDF720FB01940020ADF853
:103ED0000800ADF80A00ADF80C00ADF810000C2099
:103EE000ADF80E0001A92648FFF777FD012240F248
:103EF00025512348FFF709FE01212148FFF7F9FD6D
:103F000006B010BD10B540F225511D48FFF7E2FE86
:103F100010B31B48FFF75EFEC4B21B48008800F4D4
:103F20000040C8B91848008800F4804060B10A2CED
:103F300003D000201449088020E01348008840F492
:103F400000401149088019E00D2C06D10E48008868
:103F500040F480400C49088010E00B480088C0F312
:103F60000D000A490C5408480088401C0649088086
:103F700008460088C72801DD0020088010BD000029
:103F80000038014000080140880000208E05002014
:103F900008B501214420FEF7FBFA1C20ADF8000013
:103FA00048208DF8030069463548FEF735F80120B2
:103FB000ADF8000028208DF8030069463148FEF76F
:103FC0002BF808BD10B5044614B101202E49087025
:103FD0002D480078002837D010212948FEF7AFF887
:103FE00078B108212648FEF7AAF850B104212448E8
:103FF000FEF7A5F828B101212248FEF7A0F8012814
:1040000022D10A20FFF7E7FE00201F490870102187
:104010001B48FEF794F808B9012010BD0821184884
:10402000FEF78DF808B90220F7E704211448FEF7DF
:1040300086F808B90320F0E701211248FEF77FF85F
:1040400001281BD10420E8E710210D48FEF777F87E
:10405000012813D108210A48FEF771F801280DD173
:1040600004210748FEF76BF8012807D10121054814
:10407000FEF765F810B90120034908700020CCE76D
:1040800000180140000801408A000020F74908801C
:104090007047F649891C0880704708B5F348801CB2
:1040A00000880090BDF8000008BDF04A1080921C06
:1040B0001180704710B504462046FFF7E7FF052042
:1040C000FFF765FEFFF7E9FF10BDE9480089E74902
:1040D00008807047E549891C0880704730B5014663
:1040E00001F01F04C1F34513CA0AE50205EB4315AD
:1040F0001544A8B230BD00BF0100A0F10102D0B24A
:10410000FAD1704710B503460C46D948808849F269
:104110004131884205D0D648808845F21031884226
:1041200014D1D3494889FFF7B1FF1812FFF7B1FF47
:10413000D8B2FFF7AEFFCE498889FFF7A7FF20125C
:10414000FFF7A7FFE0B2FFF7A4FFABE0C848808805
:1041500046F6040188421DD1C5488079012804D162
:10416000C3480088401EC01A83B2C1494889FFF77E
:104170008DFF1812FFF78DFFD8B2FFF78AFFBC49F9
:104180008889FFF783FF2012FFF783FFE0B2FFF774
:1041900080FF87E0B648808841F66311884247D1A6
:1041A000B3488079A8B9B2480088401EC01A83B2CB
:1041B000AF494889FFF76AFF0020FFF76AFF002038
:1041C000FFF767FF1812FFF764FFD8B2FFF761FF30
:1041D00016E0A7494889FFF759FF1812FFF759FF62
:1041E000D8B2FFF756FFA2490988491EC1F30F2034
:1041F000FFF74FFF9E490978491EC8B2FFF749FFF4
:104200009B498889FFF742FF2012FFF742FFE0B287
:10421000FFF73FFF96494988491EC1F30F20FFF77A
:1042200038FF93498978491EC8B2FFF732FF39E059
:104230008F48808845F21051884220D18C494889A6
:10424000FFF724FF1812FFF724FF89494989491C09
:1042500088B2FFF71BFFD8B2FFF71BFF844988899C
:10426000FFF714FF2012FFF714FF81498989491CC9
:1042700088B2FFF70BFFE0B2FFF70BFF12E07C48BC
:104280008079012804D17A480088401EC01A83B280
:10429000774948891946FFF708FF754988892146FB
:1042A000FFF703FF10BD2DE9F04105460E4600243F
:1042B0000027A0466E480088A84203DD6C4840886D
:1042C000B04202DC0020BDE8F08131462846FFF70D
:1042D00019FF6748808849F24131884211D064480B
:1042E000808846F6040188420BD06148808845F2F8
:1042F0001031884205D05E48808841F663118842BB
:1043000003D12E20FFF7C2FE0DE05948808845F208
:104310001051884204D14FF43850FFF7B7FE02E045
:104320002220FFF7B3FE5248808849F220318842AC
:1043300002D10220FFF7DFFEFFF7AFFE04464C4834
:10434000808841F66311884201D12046BBE70220F4
:10435000FFF7D1FEFFF7A1FE04464548808849F2E9
:10436000413188420BD04248808845F21031884262
:1043700005D03F48808845F2105188420AD102207A
:10438000FFF7B9FEFFF789FE8046E7B24FF6FF70F0
:1043900000EA07273648808849F22531884216D03E
:1043A0003348808844F23551884210D030488088A4
:1043B000091F88420BD02E4880884BF20551884255
:1043C00005D02B4880884CF20551884201D1204607
:1043D00079E72748808849F2413188420BD0244848
:1043E000808845F21031884205D02148808845F206
:1043F0001051884207D1E012C002B91240EA4110C0
:1044000040EAE8205FE72046FFF768FE5BE700B57B
:104410001748808849F24131884211D01448808879
:1044200046F6040188420BD01148808845F21031CD
:10443000884205D00E48808841F66311884203D136
:104440002920FFF723FE0FE00948808845F210512C
:10445000884204D14FF42450FFF718FE04E040F2E4
:1044600073110720FFF721FE00BD0000FE07006C5E
:104470005606002000B5FD48808849F24131884247
:1044800011D0FA48808846F6040188420BD0F748DC
:10449000808845F21031884205D0F448808841F682
:1044A0006311884203D12820FFF7F0FD0EE0EF48AA
:1044B000808845F21051884204D14FF42050FFF714
:1044C000E5FD03E000210720FFF7EFFD00BD70B51B
:1044D000044600230026E548807901280BD1E348F3
:1044E000808846F60401884205D0E048808841F67D
:1044F0006311884208D1DD488079F0B9DB488088B3
:1045000041F66311884218D1082C15D2DFE804F077
:104510000406080A0C0E101206240DE007240BE016
:10452000042409E0052407E0012405E0002403E059
:10453000032401E0022400BF00BFCC48808849F278
:104540004131884217D0C948808846F60401884224
:1045500011D0C648808845F2103188420BD0C3483C
:10456000808845F21051884205D0C048808841F6C5
:10457000631188427ED1082C1CD2DFE804F00406C7
:10458000090C0F12151800BF14E043F0800311E06E
:1045900043F040030EE043F0C0030BE043F0200380
:1045A00008E043F0600305E043F0A00302E043F0BD
:1045B000E00300BF00BFAD48808845F2105188423B
:1045C00002D14FF4585600E03626A848808845F2BC
:1045D000103188420DD0A548808845F2105188429C
:1045E00007D0A248808841F66311884201D043F089
:1045F00008039E48808846F60401884201D143F0B2
:10460000020319463046FFF750FD9848808841F66E
:10461000631188421DD003F0200068B193480088E0
:1046200092494988884214DA9048058840888F4921
:104630000880084645800CE08C4800888B494988F2
:10464000884206DD894805884088884908800846F0
:1046500045808648808845F21051884254D183496C
:104660004889FFF713FD0020FFF713FD7F494989B3
:10467000491C00E077E088B2FFF708FD0020FFF753
:1046800008FD7A494989891C88B2FFF7FFFC774900
:104690000988491EC1F30F20FFF7FBFC73494989C4
:1046A000C91C88B2FFF7F2FC70490978491EC8B2EC
:1046B000FFF7EFFC6D498889FFF7E8FC0020FFF762
:1046C000E8FC6A498989491C88B2FFF7DFFC0020B1
:1046D000FFF7DFFC65498989891C88B2FFF7D6FCA2
:1046E00062494988491EC1F30F20FFF7D2FC5F4998
:1046F0008989C91C88B2FFF7C9FC5C498978491EC1
:10470000C8B2FFF7C6FC55E058494889FFF7BEFC20
:104710000020FFF7BEFC0020FFF7BBFC53490988CF
:10472000491EC1F30F20FFF7B4FC50490978491E18
:10473000C8B2FFF7AEFC4D498889FFF7A7FC0020FF
:10474000FFF7A7FC0020FFF7A4FC48494988491E51
:10475000C1F30F20FFF79DFC44498978491EC8B278
:10476000FFF797FC26E0082C1CD2DFE804F00407D2
:104770000A0D0F12151843F0300313E043F0100335
:1047800010E043F020030DE000BF0BE043F03803DE
:1047900008E043F0280305E043F0180302E043F08B
:1047A000080300BF00BF032643F480531946304678
:1047B000FFF77BFC70BD30B504460D462946204608
:1047C000FFF7A0FCFFF781FC2948008829490880F1
:1047D00030BD30B503460C4615462448808849F262
:1047E0004131884205D02148808845F21031884205
:1047F00014D11E494889FFF749FC1812FFF749FCFC
:10480000D8B2FFF746FC19498889FFF73FFC201210
:10481000FFF73FFCE0B2FFF73CFC93E013488088D1
:1048200045F21051884227D110494889FFF72EFCE4
:104830001812FFF72EFC0D494989491C88B2FFF771
:1048400025FCD8B2FFF725FC08498889FFF71EFC34
:104850002012FFF71EFC05498989491C88B2FFF721
:1048600015FCE0B2FFF715FC6CE0000056060020D6
:104870008C0000200008006CFC48808841F6631121
:10488000884228D1F948807920B9F8480088401E2C
:10489000C01A83B2F5494889FFF7F8FB1812FFF7F1
:1048A000F8FBD8B2FFF7F5FB1812FFF7F2FBD8B20E
:1048B000FFF7EFFBED498889FFF7E8FB2012FFF7D0
:1048C000E8FBE0B2FFF7E5FB2012FFF7E2FBE0B206
:1048D000FFF7DFFB36E0E548808846F604018842B2
:1048E0001DD1E2488079012804D1E0480088401EAB
:1048F000C01A83B2DD494889FFF7C8FB1812FFF7D9
:10490000C8FBD8B2FFF7C5FBD8498889FFF7BEFBC3
:104910002012FFF7BEFBE0B2FFF7BBFB12E0D3486B
:104920008079012804D1D1480088401EC01A83B282
:10493000CE4948891946FFF7B8FBCC4988892146FA
:10494000FFF7B3FBC9480089C9490880881C058066
:1049500030BD2DE9F0470446BE20FFF797FB052048
:10496000FFF797FB204617F03FFA07464FF06632F5
:10497000C04B17F089FA054617F0F2F91FFA80F9D3
:104980004846FFF786FB0120FFF783FBFF20FFF778
:1049900080FB0020FFF77DFB0020FFF77AFBBDE8DE
:1049A000F08710B50446002C66D1B0498871F0201C
:1049B00008804FF4A07048800846808849F2413151
:1049C00088420BD0A948808846F60401884205D069
:1049D000A648808845F2103188421AD12C20A3497C
:1049E00008812A2048812B2088810846808846F645
:1049F0000401884205D09D48808845F210318842E4
:104A000006D14FF4A070994908804FF4F0704880A7
:104A1000A1E09648808845F21051884210D14FF4A9
:104A20003050924908814FF4285048814FF42C505F
:104A300088814FF4F07008804FF4487048808AE015
:104A40008A48808841F6631188420DD12C2087491D
:104A500008812B2048812A2088814FF4F07008803B
:104A60004FF44870488076E0222080490881202059
:104A70004881212088816EE001207C4988714FF4B3
:104A8000A0700880F02048800846808849F24131B3
:104A9000884205D07548808845F21031884207D198
:104AA0002C20724908812A2048812B2088813FE0F0
:104AB0006E48808846F60401884207D12C206B4955
:104AC00008812B2048812A20888131E0674880882E
:104AD00045F21051884210D14FF43050634908819B
:104AE0004FF4285048814FF42C5088814FF448707F
:104AF00008804FF4F07048801AE05C48808841F6E6
:104B0000631188420DD12C20584908812A20488100
:104B10002B2088814FF4487008804FF4F070488053
:104B200006E02220514908812120488120208881E7
:104B30004E48808846F60401884205D04B4880885C
:104B400045F21031884206D14FF4F0704749088091
:104B50004FF4A07048800020FFF7B9FC10BD2DE98C
:104B6000F04F86B004460D469046994604EB080087
:104B7000401E86B205EB0900401E87B23B48808884
:104B800049F24131884215D03848808845F21031C9
:104B900088420FD03548808846F60401884209D003
:104BA00032488079012826D13048808841F6631147
:104BB000884220D12D494889FFF768FA2012FFF773
:104BC00068FAE0B2FFF765FA3012FFF762FAF0B266
:104BD000FFF75FFA25498889FFF758FA2812FFF78F
:104BE00058FAE8B2FFF755FA3812FFF752FAF8B25E
:104BF000FFF74FFABEE01D48808841F663118842F6
:104C00003AD11A480088A0EB0800001B84B205EBDB
:104C10000900401E1FFA80F914494889FFF736FA47
:104C20002012FFF736FAE0B2FFF733FA04EB08017F
:104C3000491EC1F30F20FFF72CFA04EB0801491EAF
:104C4000C8B2FFF726FA09498889FFF71FFA281228
:104C5000FFF71FFAE8B2FFF71CFA4FEA2920FFF727
:104C600018FA09F0FF00FFF714FA83E05606002057
:104C7000FE07006C66660440FE48808845F21051CD
:104C8000884244D1FB494889FFF700FA2012FFF718
:104C900000FAF8494989491C88B2FFF7F7F9E0B2F0
:104CA000FFF7F7F9F3494989891C88B2FFF7EEF954
:104CB0003012FFF7EEF9EF494989C91C88B2FFF7B6
:104CC000E5F9F0B2FFF7E5F9EA498889FFF7DEF97F
:104CD0002812FFF7DEF9E7498989491C88B2FFF7F6
:104CE000D5F9E8B2FFF7D5F9E2498989891C88B27C
:104CF000FFF7CCF93812FFF7CCF9DE498989C91CD6
:104D000088B2FFF7C3F9F8B2FFF7C3F932E0D94828
:104D1000807901280ED1AA46BB46D6480088801B60
:104D2000401E80B20190D3480088001B401E80B214
:104D3000009003E0A246B3460195009750200590ED
:104D40005120049052200390532002905146059820
:104D5000FFF7ABF959460498FFF7A7F901990398B3
:104D6000FFF7A3F900990298FFF79FF9294620461B
:104D7000FFF7C8F906B0BDE8F08F70B5044600260D
:104D8000BC48058840884543BA48808846F60401F7
:104D9000884216D1B7488079012812D10020B54940
:104DA00088712A2048812B20888100210846FFF73E
:104DB000A9F90120AF4988712B2048812A208881D8
:104DC00003E000210846FFF79DF9FFF77EF9002672
:104DD00002E0A9480480761CAE42FAD370BD00B54B
:104DE0009FB001210802FDF7C6FB01214FF4B4700A
:104DF000FDF7CEFB0120ADF8780010208DF87B0088
:104E000003208DF87A001EA99C48FDF705F94CF2A5
:104E10003370ADF8780018208DF87B0003208DF8F2
:104E20007A001EA99648FDF7F7F84FF68070ADF8A6
:104E3000780018208DF87B0003208DF87A001EA9D9
:104E40009048FDF7E9F841F20100ADF8780018202C
:104E50008DF87B0003208DF87A001EA98A48FDF7A3
:104E6000DBF801200890002009900F200A90002014
:104E70000B900C900D900E900190029003200390E7
:104E80000020049005900690079006200F900020C7
:104E900010901190102012900020139015901490F3
:104EA000169017904FF480501890002019904FF4EE
:104EB00080401A9000201B9008A81C9001A81D900B
:104EC0000FA8FCF78FFD01210620FCF7F3FE32202E
:104ED000FEF781FF0020FFF7EDF86649888008465D
:104EE0008088FF280ADB084680884FF6FF718842D9
:104EF00004D060488088B0F5134F7CD1D320FFF7F1
:104F0000C5F8FFF7CAF85B498880FFF7C6F859492A
:104F10008880FFF7C2F857498880084680884FF696
:104F2000FF7101EA002053498880FFF7B6F8514924
:104F3000898808434F4988800846808849F2413172
:104F4000884258D0BF20FFF7A1F8FFF7A6F84949DB
:104F50008880FFF7A2F847498880FFF79EF8454907
:104F60008880FFF79AF843498880084680884FF682
:104F7000FF7101EA00203F498880FFF78EF83D4924
:104F8000898808433B4988800846808846F60401A2
:104F9000884230D0D420FFF779F8FFF77EF8354902
:104FA0008880FFF77AF833498880FFF776F831492F
:104FB0008880084680884FF6FF7101EA00202D495D
:104FC0008880FFF76AF82B49898808432949888037
:104FD0000846808845F21031884263D04FF45A4029
:104FE000FFF754F8FFF759F8224988804FF45B40E7
:104FF000FFF74CF800E055E0FFF74FF81D498880B7
:10500000084680884FF6FF7101EA00201949888020
:105010004FF45C40FFF73AF8FFF73FF815498988ED
:1050200008431449888008468088B0F5004F02D1B3
:1050300045F2105088800F48808845F21051884210
:1050400030D0A120FFF722F8FFF727F80949888020
:10505000FFF723F807498880084680884FF6FF71DC
:1050600001EA002003498880FFF717F80149898881
:1050700008430BE0560600200008006C000C0140BD
:10508000001401400018014000200140FE498880C2
:105090000846808845F26171884203D141F6631069
:1050A000F9498880F8488188F8A015F00FF9F6488A
:1050B000808849F2413188427ED1CF20FEF7E6FF59
:1050C0000020FEF7E6FFC120FEF7E3FF3020FEF7E9
:1050D000E0FFED20FEF7DAFF6420FEF7DAFF0320A1
:1050E000FEF7D7FF1220FEF7D4FF8120FEF7D1FF95
:1050F000E820FEF7CBFF8520FEF7CBFF1020FEF760
:10510000C8FF7A20FEF7C5FFCB20FEF7BFFF39208E
:10511000FEF7BFFF2C20FEF7BCFF0020FEF7B9FF13
:105120003420FEF7B6FF0220FEF7B3FFF720FEF7AC
:10513000ADFF2020FEF7ADFFEA20FEF7A7FF00201D
:10514000FEF7A7FF0020FEF7A4FFC020FEF79EFF9A
:105150001B20FEF79EFFC120FEF798FF0120FEF7FF
:1051600098FFC520FEF792FF3020FEF792FF302017
:10517000FEF78FFFC720FEF789FFB720FEF789FFF4
:105180003620FEF783FF4820FEF783FF3A20FEF724
:105190007DFF5520FEF77DFFB120FEF777FF002051
:1051A000FEF777FF1A20FEF774FFB620FEF76EFFBA
:1051B0000A20FEF76EFF00E097E0A220FEF769FFED
:1051C000F220FEF763FF0020FEF763FF2620FEF7C4
:1051D0005DFF0120FEF75DFFE020FEF757FF0F2087
:1051E000FEF757FF2A20FEF754FF2820FEF751FF55
:1051F0000820FEF74EFF0E20FEF74BFF0820FEF7BB
:1052000048FF5420FEF745FFA920FEF742FF432048
:10521000FEF73FFF0A20FEF73CFF0F20FEF739FFA5
:105220000020FEF736FF0020FEF733FF0020FEF7D8
:1052300030FF0020FEF72DFFE120FEF727FF0020C2
:10524000FEF727FF1520FEF724FF1720FEF721FFAA
:105250000720FEF71EFF1120FEF71BFF0620FEF7BA
:1052600018FF2B20FEF715FF5620FEF712FF3C20FB
:10527000FEF70FFF0520FEF70CFF1020FEF709FFD9
:105280000F20FEF706FF3F20FEF703FF3F20FEF74B
:1052900000FF0F20FEF7FDFE2B20FEF7F7FE00209B
:1052A000FEF7F7FE0020FEF7F4FE0120FEF7F1FE08
:1052B0003F20FEF7EEFE2A20FEF7E8FE0020FEF774
:1052C000E8FE0020FEF7E5FE0020FEF7E2FEEF20FC
:1052D000FEF7DFFE1120FEF7D9FE7820FEF77BFDFA
:1052E0002920FEF7D3FE03F025B96748808846F6EB
:1052F000040188427ED11120FEF7C8FE1420FEF77B
:105300006AFDD020FEF7C2FE0720FEF7C2FE422053
:10531000FEF7BFFE1D20FEF7BCFED120FEF7B6FE55
:105320000020FEF7B6FE1A20FEF7B3FE0920FEF7B6
:10533000B0FED220FEF7AAFE0120FEF7AAFE222030
:10534000FEF7A7FEC020FEF7A1FE1020FEF7A1FE8B
:105350003B20FEF79EFE0020FEF79BFE0220FEF79C
:1053600098FE1120FEF795FEC520FEF78FFE032064
:10537000FEF78FFEC820FEF789FE0020FEF789FEAB
:105380002520FEF786FE2120FEF783FE0520FEF78E
:1053900080FE0020FEF77DFE0A20FEF77AFE6520E3
:1053A000FEF777FE2520FEF774FE7720FEF771FEEC
:1053B0005020FEF76EFE0F20FEF76BFE0020FEF77A
:1053C00068FEF820FEF762FE0120FEF762FEFE2076
:1053D000FEF75CFE0020FEF75CFE0220FEF759FEA1
:1053E0002020FEF753FE3620FEF750FE0820FEF781
:1053F00050FE00E02AE03A20FEF748FE5520FEF776
:1054000048FE2B20FEF742FE0020FEF742FE002061
:10541000FEF73FFE0120FEF73CFE3F20FEF739FE7F
:105420002A20FEF733FE0020FEF733FE0020FEF7B1
:1054300030FE0120FEF72DFEDF20FEF72AFE782049
:10544000FEF7C9FC2920FEF721FE4CE70E488088B4
:1054500045F21031884240F08487ED20FEF716FEB9
:105460000120FEF716FEFE20FEF713FEEE20FEF7EB
:105470000DFEDE20FEF70DFE2120FEF70AFEF120D4
:10548000FEF704FE012009E056060020204C4344AC
:105490002049443A25780D0A00000000FEF7F9FD86
:1054A000DF20FEF7F3FD1020FEF7F3FDC420FEF72A
:1054B000EDFD8F20FEF7EDFDC620FEF7E7FD002095
:1054C000FEF7E7FDE220FEF7E4FDE220FEF7E1FD56
:1054D000E220FEF7DEFDBF20FEF7D8FDAA20FEF792
:1054E000D8FDB020FEF7D2FD0D20FEF7D2FD002042
:1054F000FEF7CFFD0D20FEF7CCFD0020FEF7C9FD25
:105500001120FEF7C6FD0020FEF7C3FD1920FEF7AF
:10551000C0FD0020FEF7BDFD2120FEF7BAFD0020F2
:10552000FEF7B7FD2D20FEF7B4FD0020FEF7B1FD1C
:105530003D20FEF7AEFD0020FEF7ABFD5D20FEF73F
:10554000A8FD0020FEF7A5FD5D20FEF7A2FD0020CE
:10555000FEF79FFDB120FEF799FD8020FEF799FD33
:105560000020FEF796FD8B20FEF793FD0020FEF74E
:1055700090FD9620FEF78DFD0020FEF78AFDB220FB
:10558000FEF784FD0020FEF784FD0020FEF781FD7C
:105590000220FEF77EFD0020FEF77BFD0320FEF7D4
:1055A00078FD0020FEF775FDB320FEF76FFD0020AB
:1055B000FEF76FFD0020FEF76CFD0020FEF769FD91
:1055C0000020FEF766FD0020FEF763FD0020FEF7D9
:1055D00060FD0020FEF75DFD0020FEF75AFD002073
:1055E000FEF757FD0020FEF754FD0020FEF751FDA9
:1055F0000020FEF74EFD0020FEF74BFD0020FEF7D9
:1056000048FD0020FEF745FD0020FEF742FD00208A
:10561000FEF73FFD0020FEF73CFD0020FEF739FDC0
:105620000020FEF736FD0020FEF733FD0020FEF7D8
:1056300030FD0020FEF72DFD0020FEF72AFDB420EE
:10564000FEF724FD8B20FEF724FD0020FEF721FD50
:105650009620FEF71EFD0020FEF71BFDA120FEF7A1
:1056600018FD0020FEF715FDB520FEF70FFD022006
:10567000FEF70FFD0020FEF70CFD0320FEF709FDED
:105680000020FEF706FD0420FEF703FD0020FEF7D4
:1056900000FDB620FEF7FAFC0020FEF7FAFC002021
:1056A000FEF7F7FCB720FEF7F1FC0020FEF7F1FC57
:1056B0000020FEF7EEFC3F20FEF7EBFC0020FEF79B
:1056C000E8FC5E20FEF7E5FC0020FEF7E2FC64202B
:1056D000FEF7DFFC0020FEF7DCFC8C20FEF7D9FC97
:1056E0000020FEF7D6FCAC20FEF7D3FC0020FEF72E
:1056F000D0FCDC20FEF7CDFC0020FEF7CAFC7020B9
:10570000FEF7C7FC0020FEF7C4FC9020FEF7C1FCAA
:105710000020FEF7BEFCEB20FEF7BBFC0020FEF7EE
:10572000B8FCDC20FEF7B5FC0020FEF7B2FCB82088
:10573000FEF7ACFC0020FEF7ACFC0020FEF7A9FC55
:105740000020FEF7A6FC0020FEF7A3FC0020FEF7D9
:10575000A0FC0020FEF79DFC0020FEF79AFC002034
:10576000FEF797FCBA20FEF791FC2420FEF791FC8F
:105770000020FEF78EFC0020FEF78BFC0020FEF7D9
:1057800088FCC120FEF782FC2020FEF782FC00206E
:10579000FEF77FFC5420FEF77CFC0020FEF779FC2E
:1057A000FF20FEF776FC0020FEF773FCC220FEF718
:1057B0006DFC0A20FEF76DFC0020FEF76AFC042059
:1057C000FEF767FC0020FEF764FCC320FEF75EFCDA
:1057D0003C20FEF75EFC0020FEF75BFC3A20FEF763
:1057E00058FC0020FEF755FC3920FEF752FC002043
:1057F000FEF74FFC3720FEF74CFC0020FEF749FC7B
:105800003C20FEF746FC0020FEF743FC3620FEF766
:1058100040FC0020FEF73DFC3220FEF73AFC002061
:10582000FEF737FC2F20FEF734FC0020FEF731FC9A
:105830002C20FEF72EFC0020FEF72BFC2920FEF783
:1058400028FC0020FEF725FC2620FEF722FC002085
:10585000FEF71FFC2420FEF71CFC0020FEF719FCBD
:105860002420FEF716FC0020FEF713FC2320FEF791
:1058700010FC0020FEF70DFC3C20FEF70AFC002087
:10588000FEF707FC3620FEF704FC0020FEF701FCC3
:105890003220FEF7FEFB0020FEF7FBFB2F20FEF779
:1058A000F8FB0020FEF7F5FB2C20FEF7F2FB0020B2
:1058B000FEF7EFFB2920FEF7ECFB0020FEF7E9FBEB
:1058C0002620FEF7E6FB0020FEF7E3FB2420FEF790
:1058D000E0FB0020FEF7DDFB2420FEF7DAFB0020D2
:1058E000FEF7D7FB2320FEF7D4FB0020FEF7D1FB09
:1058F000C420FEF7CBFB6220FEF7CBFB0020FEF7B7
:10590000C8FB0520FEF7C5FB0020FEF7C2FB842084
:10591000FEF7BFFB0020FEF7BCFBF020FEF7B9FB53
:105920000020FEF7B6FB1820FEF7B3FB0020FEF7C1
:10593000B0FBA420FEF7ADFB0020FEF7AAFB182069
:10594000FEF7A7FB0020FEF7A4FB5020FEF7A1FB0B
:105950000020FEF79EFB0C20FEF79BFB0020FEF7CD
:1059600098FB1720FEF795FB0020FEF792FB952091
:10597000FEF78FFB0020FEF78CFBF320FEF789FB80
:105980000020FEF786FBE620FEF783FB0020FEF7F3
:1059900080FBC520FEF77AFB3220FEF77AFB002061
:1059A000FEF777FB4420FEF774FB0020FEF771FB47
:1059B0006520FEF76EFB0020FEF76BFB7620FEF7FE
:1059C00068FB0020FEF765FB8820FEF762FB0020E5
:1059D000FEF75FFBC620FEF759FB2020FEF759FBC0
:1059E0000020FEF756FB1720FEF753FB0020FEF7C2
:1059F00050FB0120FEF74DFB0020FEF74AFBC720BD
:105A0000FEF744FB0020FEF744FB0020FEF741FBBD
:105A10000020FEF73EFB0020FEF73BFBC820FEF710
:105A200035FB0020FEF735FB0020FEF732FB00209F
:105A3000FEF72FFB0020FEF72CFBC920FEF726FB0C
:105A40000020FEF726FB0020FEF723FB0020FEF7D8
:105A500020FB0020FEF71DFB0020FEF71AFB0020B4
:105A6000FEF717FB0020FEF714FB0020FEF711FBEA
:105A70000020FEF70EFB0020FEF70BFB0020FEF7D8
:105A800008FB0020FEF705FB0020FEF702FB0020CC
:105A9000FEF7FFFA0020FEF7FCFA0020FEF7F9FA05
:105AA000E020FEF7F3FA1620FEF7F3FA0020FEF7E7
:105AB000F0FA1C20FEF7EDFA0020FEF7EAFA2120AA
:105AC000FEF7E7FA0020FEF7E4FA3620FEF7E1FAE7
:105AD0000020FEF7DEFA4620FEF7DBFA0020FEF794
